S00F0000427574746F6E732E7372656326
S214400000D03800204D0D4000490D4000490D4000BD
S214400010490D4000490D4000490D400000000000D9
S214400020000000000000000000000000490D4000F5
S214400030490D400000000000490D4000490D4000B9
S214400040490D4000490D4000490D4000490D400013
S214400050490D4000490D4000490D4000490D400003
S214400060490D4000490D400000000000150A4000C0
S214400070290A40003D0A4000490D4000490D400015
S2144000800000000000000000490D4000490D4000FF
S214400090490D4000490D4000490D4000490D4000C3
S2144000A0490D4000490D4000490D4000490D4000B3
S2144000B0490D4000490D4000490D4000490D4000A3
S2144000C0490D4000490D4000490D400010B5054C13
S2144000D0237833B9044B13B10448AFF300800123AF
S2144000E0237010BD380800200000000004234000A4
S2144000F0084B10B51BB108490848AFF300800848C4
S214400100036803B910BD074B002BFBD0BDE8104079
S214400110184700BF000000003C08002004234000B1
S214400120042340000000000070B582B0064602ACD2
S214400130022344F8043D094D21462846084B98477B
S2144001404FF40012074B5A63EE605620064B984712
S21440015021462846054B984702B070BD00800040B7
S214400160AD03400000120E4001000020D9034000BD
S214400170F0B585B0254D4FF000466E635620244CB2
S214400180A0472E635620A047022704AE46F8047DBB
S214400190204C2046204B9847002500951F4B2A466A
S2144001A0314620461E4EB04701232360A8201D4CF2
S2144001B0A0471F20A047D320A0472846A04740205E
S2144001C0A047A120A047C820A047DA20A04738462D
S2144001D0A0478120A0478F20A047A420A047A62064
S2144001E0A047D520A0478020A0478D20A0471420B8
S2144001F0A047DB20A0474020A047D920A047F120B9
S214400200A047AF20A04705B0F0BD00BF00120E408B
S2144002100100002000800040D9024000404B4C00C6
S2144002202D034000290140000378002B47D02DE9DC
S214400230F04F83B08346224EDFF894A0DFF89490C8
S2144002407E2B35D8203B1F4A52F823703B78DBB1D3
S214400250012417F8048002AD022345F8043D2946E0
S2144002603046D0474FF40013C9F83030C6F80C80FB
S2144002705620154B984729463046144B984701342C
S214400280E4B23B78A342E4D202AC022344F8043DF5
S21440029021463046D0474FF40013C9F8303000238B
S2144002A0F3605620084B984721463046074B984700
S2144002B01BF8013F002BC3D103B0BDE8F08F704759
S2144002C0008000403400002001000020D903400098
S2144002D0AD03400000120E4010B50446104B984740
S2144002E080232360636843F001036360636843F0E0
S2144002F010036360636823F0800363600021204638
S214400300084B9847636823F002036360636823F0F2
S2144003100403636000212046034B984710BD00BF8E
S214400320110C4000210C4000390C40002DE9F041F2
S21440033004460D46164615491846154B9847074637
S21440034000231A4629682046DFF85C80C04708220A
S214400350296820460F4B9847FAB2296820460E4B2C
S21440036098470822296820460C4B98477208296807
S21440037020460B4B984786F0010202F0010229689E
S2144003802046084B9847BDE8F08100BF000E27077F
S214400390E50C4000D10C4000FD0C40008D0C4000A8
S2144003A04D0C40006D0C4000250D400008B54368DC
S2144003B013F0040F05D009680F290AD8054B984753
S2144003C008BD0B68032B04D801219940C943014B53
S2144003D0984708BD210C400010B50446236913F425
S2144003E0007FFBD00F212046024B98474FF080738A
S2144003F0236010BD210C4000F0B48CB007460E467A
S21440040001AC114D0FCD0FC40FCD0FC495E80700BA
S21440041084E8070001AA002052F8043BB6FBF3F339
S214400420B3FBF7F3B3F5807F05D901300B28F3D142
S2144004304FF6FF7005E00A2894BF43EA00204FF6C7
S214400440FF700CB0F0BC70470C22400070B50646FA
S2144004500C46086840B189680E4B984705464FF6EB
S214400460FF73984201D10EE00025606840B1A16854
S214400470084B98474FF6FF73984207D045EA004529
S2144004803560002070BD4FF6FF7070BD4FF6FF70B0
S21440049070BD00BFF903400070B40B684A6802F0B4
S2144004A00F028C8A22430C8922438C7A42EA4422E9
S2144004B08C7D42EA0442CC7D42EA44420C7E42EACB
S2144004C0844200EB4314C4F80022CA68C4F80422ED
S2144004D00A69C4F80C228A7D3AB18C8B4A8B42EA70
S2144004E0044200EB4314C4F81822846C4FF0011207
S2144004F09A40D24304EA0205CC7F04FA03F68C7F86
S2144005009C4044EA06442C438464446C224091F860
S214400510214004FA03F591F820409C4044EA054403
S2144005202243426401229A4091F822401CB1046A58
S2144005301443046203E0046A24EA0204046291F865
S2144005402440012C846E0CBF14439443846691F877
S2144005502540012C846E0CBF44EA024224EA024243
S2144005608266DB00C46EFF229A4024EA020291F8BB
S214400570231001FA03F31343C366002070BC704790
S2144005800B69934207D30B68CA6000EB4310C0F870
S2144005900822002070474FF6FF707047012303FA89
S2144005A001F14160704700BF012303FA01F1816009
S2144005B0704700BF10B50E480E4B98473E210020AE
S2144005C00D4B98470D4CA0470028FCD00C4B984745
S2144005D00C4A0D4B9A620D4CA0470028FCD01020C8
S2144005E00B4B98470B4B98470148024B984710BD1A
S2144005F0000E2707110F4000390B40008D0B4000BE
S2144006009D0B4000013F132000040E40AD0B400000
S214400610D10A4000FD0D4000F8B53048304B9847B1
S2144006200B20304CA0470C20A0470D20A0472E4B57
S2144006304FF400021A631A61C3F8A0202B4C04251D
S2144006406561C4F8A0506566C4F8905065656562FB
S214400650C4F88050226F22F004022267626F22F0B4
S214400660040262674FF480121A631A61C3F8A0202E
S2144006704FF4803222632261C4F8A0204FF48002F7
S2144006801A631A61C3F8A020194F39460C20194E38
S214400690B04739460D20B04739460E20B0474FF098
S2144006A080510920B04714490A20B04707F1405707
S2144006B039465520B04739465F20B0476566C4F88E
S2144006C0905065656562C4F88050236F23F004033C
S2144006D02367636F23F004036367F8BD50140E402E
S2144006E0410D4000BD0B400000120E40000E0E4073
S2144006F0010000084908400001000010C0F88410BE
S21440070052004FF40043B3FBF2F2013AC2F30D023B
S214400710C0F88C20704700BF4264B1F1C05F2FD054
S21440072007D8B1F1006F14D0B1F1805F1ED039B94F
S2144007307047B1F1205F36D004D8B1F1005F29D0C0
S21440074042607047B1F1405F2DD0B1F1605F2AD072
S214400750F6E710B4046F016FD34321401940016798
S214400760446F416F21400B4043671AE0036F1343C9
S2144007700367416F436F0B4023EA02034367DFE79B
S214400780016F036F0B4023EA02030367436F134373
S2144007904367D5E7036F13430367436F13434367CA
S2144007A0CEE7426010BC7047416412F0010F14BFA0
S2144007B04166016612F00A0F14BF0162416212F0F0
S2144007C0020F02D0C0F8801004E012F0080F18BFE5
S2144007D0C0F8841041610160704700BF10B44164A6
S2144007E0019C0CB1416600E001660BB1016500E07A
S2144007F041650AB1016300E041630161016010BCDC
S214400800704700BF12F0100F10D0C0F8B01012F0B2
S214400810200F14BFC0F8D410C0F8D01012F0400F0C
S21440082014BFC0F8C010C0F8C4107047C0F8B41069
S214400830704700BFC36C0164704700BF4164704797
S214400840C06C7047806C704770B582B00D464309E7
S21440085003F5001303F207735C0201F0F043B3F1B3
S214400860005F47D009D8B3F1805F21D0B3F1C05FB5
S2144008702FD0B3F1006F6FD109E0B3F1405F55D090
S214400880B3F1605F52D0B3F1205F44D064E000F033
S2144008901F000126864032464FF000612046304B0E
S2144008A0984715F0010F14BF66662666012054E08F
S2144008B000F01F000126864032464FF08051204609
S2144008C0274B984715F0010F14BF66662666012031
S2144008D043E000F01F000126864032464FF0C051EC
S2144008E020461F4B984715F0010F14BF66662666D4
S2144008F0012032E000F01F000126864032464FF0CD
S21440090000512046164B984715F0010F14BF6666F7
S2144009102666012021E000F01F0101262A4606FA3D
S21440092001F120460F4B9847304616E005F06052DE
S21440093000F01F01012605EA06030093C5F3800375
S214400940B2F1605F14BF0022012206FA01F1204690
S214400950054CA047304600E0002002B070BD00BF06
S21440096019074000A9074000DD0740002DE9F8437D
S21440097081468846124B984705464846114B98474D
S214400980054013D0104C04F160062368434508D157
S2144009906168294205D0E36840469847636825EA7F
S2144009A00305B44202D01034002DEED1074B1B682D
S2144009B023B1074B1B680BB148469847BDE8F88300
S2144009C041084000450840005C080020CC08002054
S2144009D058080020F8B50C4C2468062C11D815464B
S2144009E00A4F2601BA19B951556093600699D160ED
S2144009F00134054A14601A462946054B984700209C
S214400A00F8BD0120F8BD00BF540800205C08002057
S214400A100508400008B50B210148024B984708BD21
S214400A20000E0E406D09400008B50C210148024BEF
S214400A30984708BD00100E406D09400008B50D21CE
S214400A400148024B984708BD00120E406D09400011
S214400A50F8B505460C461746184B984706464FF0DD
S214400A60FF312846164B98472846164B9847E2B221
S214400A7002F01F030121994063099B0003F1604384
S214400A8003F56143C3F88010C3F88011002C06DAE2
S214400A9002F00F023F01FFB20B48875407E03F01C8
S214400AA0FFB204F1604404F5614484F800731960B1
S214400AB031462846054B9847F8BD00BF45084000DC
S214400AC03D0840004108400014ED00E03508400075
S214400AD0184A136B23F0700318431063936E13F099
S214400AE0080F03D009E0013B03D11EE04FF400633A
S214400AF010498A6E12F0080FF5D00E4A136B23F099
S214400B00030343F002031363906E10F0080004D012
S214400B1000207047013B03D109E04FF400630549CC
S214400B208A6E12F0080FF5D07047012070470120FA
S214400B30704700BF00040E4038B111490B6A114A95
S214400B401A40114B13430B6270470D48026A090264
S214400B5089B222F45C1323F0030343F45C1343F09E
S214400B6001030B4303620246936E13F0010FFBD062
S214400B70034A136A43F09B7343F48033136270470F
S214400B8000040E40FCFFC8FE02003701024B986E80
S214400B9000F48030704700BF00040E404FF0005213
S214400BA0014B9A62704700BF00040E40024B986E9D
S214400BB000F00200704700BF00040E4022281ED8F6
S214400BC01F280CD8114B9A6901238340934318D0B1
S214400BD0012303FA00F00D4B1861002070472038BF
S214400BE00A4BD3F808210123834093430BD00123BB
S214400BF003FA00F0054BC3F80001002070470120BF
S214400C007047002070470020704700BF00040E4029
S214400C1008B51520014B984708BD00BFBD0B4000E6
S214400C20436823F4702343604368090401F4702149
S214400C300B434360704700BF436823F07F434360E5
S214400C40436843EA01614160704700BF32B100EB40
S214400C508100036B43F001030363704700EB8100A0
S214400C60036B23F001030363704700BF32B100EB10
S214400C708100036B43F002030363704700EB81007F
S214400C80036B23F002030363704700BF042A0AD1B4
S214400C9000EB8100036B23F008030363036B43F010
S214400CA004030363704752B900EB8100036B23F0E3
S214400CB008030363036B23F0040303637047082AA7
S214400CC005D100EB8100036B43F0080303637047D4
S214400CD000EB81010B6B23F0F0030B630B6B1A43A5
S214400CE00A637047431E1944B1FBF0F0431EFE2BC7
S214400CF094BF00B24FF0FF30704700BF6AB110B4E7
S214400D00144600EB81010B6B23F47F430B630A6BA5
S214400D1042EA04220A63002002E04FF0FF307047A8
S214400D2010BC704710B400EB8101086B80B20863BA
S214400D300C6B44EA036343EA02420A6310BC704702
S214400D404FF4004343607047FEE700BF08B5204BB2
S214400D50204A9A4212D9204B1D4A9A421ED2114628
S214400D60013B9B1A23F0030304331A4A134452F8F8
S214400D70040B41F8040B9A42F9D10FE0144B154A84
S214400D809A420BD2144B124A9A1A144811182AB196
S214400D9051F8042943F8042D8142F9D100BF104B85
S214400DA0104A9A420BD2131D0F4AD21A22F003025F
S214400DB01A44043B002143F8041B9A42FBD10B4BD8
S214400DC00B4A9A600B4B98470B4B9847FEE700BF81
S214400DD00000002004234000380800200023400084
S214400DE0D008002038080020D308002000ED00E09E
S214400DF000004000811F4000711740003D4B1B6BB8
S214400E0003F00303032B5DD8DFE803F0020E2B2B21
S214400E10394B5B6913F0800F14BF4FF400424FF418
S214400E20FA42364B1A604DE0324B1B6A13F0807F15
S214400E3003D0334A314B1A6044E0324A2F4B1A6093
S214400E402C4B1B6A03F07003102B02D0202B04D0CF
S214400E5038E02D4A294B1A6034E0294A274B1A605D
S214400E6030E0244B1B6A13F0807F03D0244A234B88
S214400E701A6012E0234A214B1A601E4B1B6A03F08D
S214400E807003102B02D0202B04D006E01E4A1B4BCA
S214400E901A6002E01A4A194B1A60164B1B6B03F095
S214400EA00303022B134A07BF936A926AD36AD26A35
S214400EB01248C3F30A41036801FB0333D2B2B3FBC3
S214400EC0F2F303600B4B1B6B03F07003702B07D1E0
S214400ED00A4A13680D49A1FB03135B081360704769
S214400EE0044B1B6B0549C3F302120B68D3400B60DF
S214400EF0704700BF00040E4010140E400804002047
S214400F00001BB70000093D0000127A00ABAAAAAA4F
S214400F101A4B984207D84FF08063194A136002F57F
S214400F20007213607047174B984206D8164B144A07
S214400F30136002F5007213607047144B984206D84F
S214400F40134B0F4A136002F5007213607047114B43
S214400F50984206D8104B0A4A136002F50072136096
S214400F6070470E4B984294BF4FF004230C4B044AF4
S214400F70136002F500721360704700BFFF2C31010A
S214400F80000A0E40FF59620200010004FF869303E8
S214400F9000020004FFB3C40400030004FFE0F505AC
S214400FA0000500040B2802D101291DD109E00D28B7
S214400FB01AD1B1F1005F06D0B1F1804F14D156225C
S214400FC002E0542200E01022530903F5001303F216
S214400FD007735B02D86B02F01F0101228A40104261
S214400FE001D11A6370475A63704700BF70B582B02C
S214400FF0064602AC022344F8043D094D21462846E5
S214401000084B98474FF40012074B5A63EE60562041
S214401010064B984721462846054B984702B070BD78
S21440102000800040AD03400000120E40010000204A
S214401030D90340002DE9F04F83B00B20DFF8C0B055
S214401040D8472A4C0A2201212046DFF8B8A0D047CC
S214401050DFF8B490CDF80090792301220B2120468A
S214401060DFF8A880C047224F4FF400633B6005225C
S2144010700B2120461F4EB047012120461E4DA84753
S2144010800D20D8470A224FF000511C48D047CDF8D3
S214401090009079234FF000520D211848C0474FF476
S2144010A000543C6005220D211448B0474FF00051D3
S2144010B01248A8470D20D8470A224FF080410F48D3
S2144010C0D047CDF8009079234FF080420D210B4851
S2144010D0C0473C6005220D210848B0474FF080418C
S2144010E00648A84703B0BDE8F08F00BF000E0E408C
S2144010F000E100E0510A40003508400000120E4072
S214401100BD0B4000FD064000A50F4000D50940003D
S21440111070B50C46164600F0070040F0B000074D8C
S214401120A847E4B2C4F3021040F01000A84704F009
S2144011300F00A8473046024B984770BDED0F400061
S2144011402902400010B5074A00210320064CA0475C
S214401150064A2D210320A047054A72210320A047B6
S21440116010BD00BF38224000111140004022400010
S2144011704C22400010B5074A00210320064CA047E9
S214401180064A37210320A047054A58210320A04796
S21440119010BD00BF542240001111400060224000A4
S2144011A06822400010B50D4A002108460C4CA04766
S2144011B00C4A00210120A0470B4A00210220A047EC
S2144011C00A4A37210020A047094A37210120A04774
S2144011D0084A37210220A04710BD00BF74224000B5
S2144011E0111140007C224000842240008C224000A6
S2144011F098224000A42240002DE9F04182B0884663
S21440120017461E460A226946194DA8470246272118
S2144012100020184CA0470A2269464046A847024686
S21440122027210120A0470A2269463846A847024699
S21440123027210220A0470A2269463046A847024690
S21440124064210020A0470A2269469DF82000A8474E
S214401250024664210120A0470A2269469DF82400E0
S214401260A847024664210220A04702B0BDE8F081AC
S21440127001204000111140002DE9F04F85B0044692
S2144012800D4616461F46214B98479DF83C30019325
S2144012909DF8383000933B463246294620461C4C43
S2144012A0A0471C481C4B98474FF0000ADFF874B024
S2144012B01A4FDFF87490DFF874803E460AF0070055
S2144012C040F0B000D8471020D8470020D8478025A7
S2144012D004AC022344F8043D21463046C8474FF448
S2144012E00013C8F830300023FB6056200A4B98475E
S2144012F0214630460A4B9847013DE9D10AF1010A9A
S214401300BAF1040FDAD105B0BDE8F08FA511400060
S214401310F9114000A53C2700010000200080004055
S214401320D9034000ED0F4000AD03400000120E40D0
S2144013302DE9F04F89B082460391049205939DF8BB
S21440134050409DF854509DF858609DF85C709DF84C
S21440135060809DF86490404B9847CDF80490CDF857
S21440136000803B46324629462046DFF820B1D84723
S214401370BAF1010F04D1394A00210846384B984744
S214401380039B012B04D1374A00210120344B984758
S214401390049B012B04D1344A00210220304B98474D
S2144013A0059B012B04D1314A372100202C4B98470E
S2144013B09DF84830012B04D12D4A37210120284B77
S2144013C098479DF84C30012B04D12A4A37210220F9
S2144013D0234B9847CDF80490CDF800803B463246E4
S2144013E029462046244CA0471B4B98472348244B6D
S2144013F098474FF0000ADFF898B0224FDFF89490F5
S214401400DFF894803E460AF0070040F0B000D84728
S2144014101020D8470020D847802508AC022344F83F
S214401420043D21463046C8474FF40013C8F83030D4
S2144014300023FB605620124B984721463046124BFD
S2144014409847013DE9D10AF1010ABAF1040FDAD111
S21440145009B0BDE8F08F00BF45114000742240003F
S214401460111140007C224000842240008C22400023
S21440147098224000A4224000F9114000A53C2700D5
S2144014800100002000800040D9034000791240004F
S214401490ED0F4000AD03400000120E402DE9F04F26
S2144014A08BB082460391049205939DF858609DF850
S2144014B05C909DF860809DF864709DF868509DF83B
S2144014C06C404A4B9847019400953B4642464946F5
S2144014D03046DFF838B1D847454B9847BAF1010F48
S2144014E009D10A2208A93046424B9847024627218E
S2144014F00020414B9847039B012B09D10A2208A99B
S21440150048463C4B98470246272101203A4B98478D
S214401510049B012B09D10A2208A94046354B98471F
S214401520024627210220344B9847059B012B09D1C0
S2144015300A2208A938462F4B9847024664210020C5
S2144015402D4B98479DF85030012B09D10A2208A907
S2144015502846284B9847024664210120264B984748
S2144015609DF85430012B09D10A2208A92046214B68
S21440157098470246642102201F4B98471B4B9847CA
S2144015801E481F4B98474FF0000ADFF884B01D4FA7
S214401590DFF88090DFF880803E460AF0070040F093
S2144015A0B000D8471020D8470020D84780250AAC3E
S2144015B0022344F80C3D21463046C8474FF40013FA
S2144015C0C8F830300023FB6056200D4B9847214624
S2144015D030460D4B9847013DE9D10AF1010ABAF170
S2144015E0040FDAD10BB0BDE8F08F00BF7511400094
S2144015F0A51140000120400011114000A53C2700E5
S2144016000100002000800040D903400079124000CD
S214401610ED0F4000AD03400000120E402DE9F04FA4
S21440162089B002900391049205934FF0000ADFF8C8
S21440163090B01E4FDFF88C90DFF88C803E460AF064
S214401640070040F0B000D8471020D8470020D847C1
S214401650802508AC022344F8043D21463046C8475E
S2144016604FF40013C8F830300023FB605620104B70
S2144016709847214630460F4B9847013DE9D10AF13D
S214401680010ABAF1040FDAD10B4B98479DF84C305B
S21440169001939DF848300093059B049A039902985D
S2144016A0064CA04709B0BDE8F08F00BF0080004060
S2144016B001000020D9034000A5114000F911400068
S2144016C0ED0F4000AD03400000120E402DE9F04FF4
S2144016D083B01D4B98471D4B98471D4B98474FF07E
S2144016E0000ADFF880B01B4FDFF87C90DFF87C8084
S2144016F03E460AF0070040F0B000D8471020D847D2
S2144017000020D847802502AC022344F8043D2146F9
S2144017103046C8474FF40013C8F830300023FB600B
S21440172056200D4B9847214630460C4B9847013D76
S214401730E9D10AF1010ABAF1040FDAD1084B984709
S21440174003B0BDE8F08F00BFB50540001906400065
S214401750710140000080004001000020D903400095
S21440176035104000ED0F4000AD03400000120E4023
S2144017702DE9F04F9DB0714B984742F21073199384
S21440178000241A946E4B1B93282221460FA86D4BBB
S21440179098470B231093C82313934FF08051132080
S2144017A0694DA8474FF080511420A8474FF000617C
S2144017B01E20A8471F20654B9847654D2146284662
S2144017C0644EB04701212846B04702212846B0471C
S2144017D019A92846604B98470F940FA92846DFF86A
S2144017E08C91C847214628465C4EB0474FF00108CA
S2144017F0CDF83C800FA92846C84741462846B04702
S21440180002270F970FA92846C84739462846B047AB
S2144018100F9408220FA92846514EB047CDF83C8079
S21440182008220FA92846B0470F9708220FA9284636
S214401830B047A346A246089409940A940B940D9484
S2144018400C94484F0D9B002B40F03C820C9BA3B958
S214401850CDF81CB0CDF818A0089B0593099B0493BF
S2144018600A9B03930B9B02930121019100910B4627
S2144018700A4600203C4CA0472FE00C9B012B14D17D
S214401880CDF81CB0CDF818A0089B0593099B04938F
S2144018900A9B03930B9B0293012001900090034602
S2144018A002460021304CA0472FE00C9B022B14D15F
S2144018B0CDF81CB0CDF818A0089B0593099B04935F
S2144018C00A9B03930B9B02930120019000900346D2
S2144018D000220146244CA0474AE00C9B032B14D11F
S2144018E0CDF81CB0CDF818A0089B0593099B04932F
S2144018F00A9B03930B9B02930120019000900023C8
S21440190002460146184CA0474AE00C9B042B2FD1B8
S214401910CDF81CB0CDF818A0089B0593099B0493FE
S2144019200A9B03930B9B0293012001900023009394
S2144019300346024601460C4CA04731E0CD16400017
S214401940001C4E0E0520400049084000BD0B4000DC
S21440195000000240A90540004D0440009D0540009F
S2144019608105400000120E403113400099044000AB
S2144019700C9B052B14D1CDF81CB0CDF818A0089BB5
S2144019800593099B04930A9B03930B9B02930023A6
S214401990019301200090034602460146B24CA04700
S2144019A0FB6B13F4801F09D14FF480133B630C9BF1
S2144019B00133DBB2062B08BF00230C93AB4BDB6B2B
S2144019C013F4803F38D14FF48033A84A1363002382
S2144019D0DFF8B482DFF8B4924646CDF834A09A4693
S2144019E00AF0070040F0B000A14B98471020A04BEB
S2144019F0984700209E4B984780251CAC022344F80D
S214401A00383D21463046C8474FF400133B63002319
S214401A10C8F80C305620974B984721463046964B90
S214401A209847013DE9D10AF1010ABAF1040FD7D12E
S214401A30DDF834A001230D93FB6B13F4800F40F0C8
S214401A4041814FF480033B63CDF804B0CDF800A04D
S214401A50089B099A0A990B9D2846884CA04755B37F
S214401A60DFF82C922C46CDF82CA04FF0000A1CAD87
S214401A7045F834AD032229464846DFF81882C04769
S214401A807F487C4EB047CDF83CA0072229464846C2
S214401A90C0477C48B047013CE4B2CDF804B00B9B4D
S214401AA00093089B099A0A992046744DA847002C33
S214401AB0DBD1DDF82CA00A9B4BB3DFF8D4911C4653
S214401AC0CDF828A000261CAD45F8346D0D222946D9
S214401AD04846DFF8C0A1D0476948DFF89881C0473C
S214401AE00F96072229464846D0476648C047013CDD
S214401AF0E4B2CDF804B00A9B0093089B099A2146AD
S214401B0030465E4DA847002CDCD1DDF828A0099B66
S214401B1053B3DFF87C91DFF87C811C46CDF824A0D7
S214401B204FF0010A1CAD45F834AD0322294648461D
S214401B30C04753484F4EB047CDF83CA008222946F0
S214401B404846C0474E48B047013CE4B2CDF804B0E2
S214401B50099B0093089B224600210846474DA8470C
S214401B60002CDDD1DDF824A0089B53B3DFF820918C
S214401B70DFF820811C46CDF820A04FF0010A1CADAE
S214401B8045F834AD0D2229464846C0473C48394EB4
S214401B90B047CDF83CA0082229464846C0473848BA
S214401BA0B047013CE4B2CDF804B0089B009323460E
S214401BB0002211461046314DA847002CDDD1DDF8F5
S214401BC020A0BAF1000F25D0DFF8C490DFF8C4801B
S214401BD054464FF0020A1CAD45F834AD0322294660
S214401BE04846C0472648234EB047CDF83CA008227A
S214401BF029464846C0472248B047013CE4B2CDF8A3
S214401C0004B0009400231A46194618461B4DA847B0
S214401C10002CDED1BBF1000F4AD0DFF87490DFF81D
S214401C2074805C464FF0020A1CAD45F834AD0D2278
S214401C3029464846C04712480E4EB047CDF83CA00D
S214401C40082229464846C0470D48B047013CE4B202
S214401C50019400200090034602460146074DA847DF
S214401C60002CDFD118E000BF31134000000E0E40BC
S214401C70ED0F400001000020D90340001D16400033
S214401C8025CA820093F29C0000800040AD034000CD
S214401C900000024081054000A3464FF0000ACDF800
S214401CA020A0CDF824A0CDF828A0CDF82CA009E09F
S214401CB04FF0000ACDF820A0CDF824A0CDF828A0FB
S214401CC0CDF82CA00D9B002B3FF4BCAD0C9BA3B9CC
S214401CD0CDF81CB0CDF818A0089B0593099B04933B
S214401CE00A9B03930B9B02930121019100910B46A3
S214401CF00A4600209B4CA0472FE00C9B012B14D19A
S214401D00CDF81CB0CDF818A0089B0593099B04930A
S214401D100A9B03930B9B029301200190009003467D
S214401D20024600218F4CA0472FE00C9B022B14D17B
S214401D30CDF81CB0CDF818A0089B0593099B0493DA
S214401D400A9B03930B9B029301200190009003464D
S214401D5000220146834CA04734E00C9B032B14D151
S214401D60CDF81CB0CDF818A0089B0593099B0493AA
S214401D700A9B03930B9B0293012001900090002343
S214401D8002460146774CA04739E00C9B042B19D1FC
S214401D90CDF81CB0CDF818A0089B0593099B04937A
S214401DA00A9B03930B9B0293012001900023009310
S214401DB00346024601466B4CA047FB6B13F4801F5C
S214401DC052D1CBE00C9B052B19D1CDF81CB0CDF8E9
S214401DD018A0089B0593099B04930A9B03930B9BAF
S214401DE002930023019301200090034602460146D9
S214401DF05C4CA047FB6B13F4801F35D1AAE0FB6B0D
S214401E0013F4801F30D14FF480133B630C9B23B9EF
S214401E100B9B0133DBB20B930FE00C9B012B04D1E1
S214401E200A9B0133DBB20A930FE00C9B022B04D1D2
S214401E30099B0133DBB209930FE00C9B032B04D1C3
S214401E40089B0133DBB208930EE00C9B042B04D1B5
S214401E500AF1010A5FFA8AFA06E00C9B052B04BFDA
S214401E600BF1010B5FFA8BFB3F4BDB6B13F4803FB0
S214401E7038D14FF480333C4A13630023DFF8F880B0
S214401E80DFF8F8904646CDF834A09A460AF00700A8
S214401E9040F0B000354B98471020344B9847002010
S214401EA0324B984780251CAC022344F8383D2146E7
S214401EB03046C8474FF400133B630023C8F80C3045
S214401EC056202B4B9847214630462A4B9847013D93
S214401ED0E9D10AF1010ABAF1040FD7D1DDF834A0EE
S214401EE000230D93FB6B13F4800F7FF4ABAC4FF4E1
S214401EF080033B630C9B23B90B9B013BDBB20B93EC
S214401F000FE00C9B012B04D10A9B013BDBB20A93EA
S214401F100FE00C9B022B04D1099B013BDBB20993DB
S214401F200FE00C9B032B04D1089B013BDBB20893CC
S214401F3088E40C9B042B04D10AF1FF3A5FFA8AFA34
S214401F4080E40C9B052B7FF47DAC0BF1FF3B5FFAE6
S214401F508BFB77E44FF480133B6366E74FF48013C4
S214401F603B635AE79D144000000E0E40ED0F4000C4
S214401F7001000020D903400000800040AD0340002F
S214401F8070B50F4E0F4D761BB61018BF002405D007
S214401F90013455F8043B9847A642F9D10A4E0B4DFA
S214401FA0761B00F09DF9B61018BF002406D0013409
S214401FB055F8043B9847A642F9D170BD70BD00BFA6
S214401FC0EC224000EC224000F4224000EC2240008C
S214401FD0931E222B10D80A2A10B506D000230C4692
S214401FE0194400F05DF8204610BD0028F6DA2D238F
S214401FF00B7040420123F2E700200870704700BF94
S214402000FFF7E6BF70B4840746D0541E002A41D07E
S214402010CDB2034602E0621EE4B3144603F8015B09
S2144020209A07F8D1032C2ED9CDB245EA05250F2CB8
S21440203045EA054519D903F110022646103E0F2EF3
S21440204042F8105C42F80C5C42F8085C42F8045CCB
S21440205002F11002F2D8A4F1100222F00F0204F0AE
S2144020600F041032032C13440DD91E462246043A60
S214402070032A46F8045BFAD8221F22F003020432F1
S214402080134404F003042CB1C9B21C4403F8011BEA
S214402090A342FBD170BC704714460346C2E700BF5C
S2144020A0F0B5DFF878E0164604460F46BEE80F0067
S2144020B08BB06D460FC5BEE80F000FC59EE8030007
S2144020C0B31E45F8040B222B297022D87D1E2846C5
S2144020D0002200E01A46B4FBF6F10AAB06FB1144B8
S2144020E023440C4613F8283C00F8013F531C0029B3
S2144020F0F0D1F954BB184AB1197815F8010F297078
S2144021000134111B8C4203F80109F5DB38460BB04D
S214402110F0BD002038700BB0F0BD00BFB8224000C4
S214402120024B13B1024800F005B8704700000000AB
S21440213041214000002301461A46184600F014B8D4
S21440214038B5074D074C2C1BA41005D0013C55F85C
S214402150043D9847002CF9D1BDE8384000F0CAB895
S21440216004234000002340002DE9F047254C256815
S214402170D5F848410646884692469946C4B36068B4
S2144021801F2817DC431C76B104EB80050122C5F8F6
S21440219088A0D4F8881182401143022EC4F88811D2
S2144021A0C5F808911ED00230636044F820800020B5
S2144021B0BDE8F087144B03B34FF4C870AFF300800C
S2144021C00446D0B1D5F84831002780E88800C5F8E5
S2144021D0484138460123C4F88871C4F88C71002EF3
S2144021E0E1D0D1E7D4F88C110A43C4F88C21DAE761
S2144021F005F5A674C5F84841C1E74FF0FF30BDE885
S214402200F08700BFB422400000000000010000003C
S214402210020000000400000008000000100000005B
S2144022202000000040000000800000000001000088
S21440223000020000000400005479706500000000B1
S2144022405175616E7469747900000000526F6C6C51
S21440225000000000496E637265617365000000000F
S2144022604261636B0000000044656372656173659C
S21440227000000000342D536964656400362D5369B0
S21440228064656400382D53696465640031302D53AD
S214402290696465640000000031322D5369646564EA
S2144022A00000000032302D53696465640000000071
S2144022B043000000100400203031323334353637C6
S2144022C038396162636465666768696A6B6C6D6EAF
S2144022D06F707172737475767778797A0000000043
S2144022E0F8B500BFF8BC08BC9E46704721214000A8
S2144022F0F1004000F8B500BFF8BC08BC9E467047E9
S208402300CD00400087
S214402304BFF35F8F0138FBD1704700BF0144000024
S21440231401C40000050608F00806000003FE828299
S214402324030638C0038282FE0304020403808080CE
S2144023340202040044020020480200204C0200200E
S214402344500200205802002060020020680200204C
S2144023547002002034030020380300203C03002091
S2144023644003002044030020480300204C03002080
S21440237450030020E4020020EC020020F402002077
S214402384FC020020B00100200C0300203402002090
S214402394B801002024030020C00100200C000020C7
S2144023A410000020C8010020D0010020D8010020E1
S2144023B4E0010020E8010020740200207C02002096
S2144023C484020020F4010020FC01002004020020C6
S2144023D40C020020A0020020A8020020AC0200202C
S2144023E4B4020020BC020020C4020020CC0200201C
S2144023F4D4020020DC020020140200201C0200202C
S214402404240200202C020020040300203C0200206A
S214402414140300201C030020140000202C0300207A
S2144024241C0000202000002024000020280000205B
S2144024342C00002030000020540300205C030020C1
S214402444640300206C030020740300207C030020F7
S214402454800300208803002090030020940300207B
S21440246498030020A0030020A4030020AC0300200F
S214402474B4030020BC030020C4030020CC03002087
S214402484D0030020D8030020DC030020E40300200F
S214402494EC030020F4030020FC0300200404002086
S2144024A48C02002090020020940200209802002013
S2144024B405302824FE200000050202F20A06000029
S2144024C4054C9292927C000004102844820000003E
S2144024D4042828282800000004824428100000000D
S2144024E4050402A2120C000008384492AAAABA2490
S2144024F41800000004FE82827C00000004FE9292D3
S2144025048200000004FE121202000000057C829243
S21440251492F40000057C82A242BC000004FE123203
S214402524CC000000044C929264000000050202FEB7
S21440253402020000057C929292640000050E30C0B0
S214402544300E00000200000001BE00000306000634
S2144025540528FE28FE280000054854FE54240000A2
S21440256405462610C8C40000056C92AC40A0000086
S2144025740106000005F8141214F8000004FE9292B6
S2144025846C000000047C82824400000003106C82CD
S21440259401FE000003826C10051008102010000095
S2144025A404FE1010FE0000000382FE820440808079
S2144025B47E00000005FE10284482000004FE808051
S2144025C48000000005FE040804FE000005FE041812
S2144025D460FE0000047C82827C00000004FE12122E
S2144025E40C000000057CA2928A7C0000050084FE54
S2144025F4800000000584C2A2928C000005448292AA
S214402604926C0000047E80807E000000055E8A8A0C
S2144026148A720000053EC038C03E000005C6281039
S21440262428C60000056C9292926C000005C2A292E5
S2144026348A860000033844820382443803281028DC
S2144026440310381001C00000031010100180000071
S21440265403C0380604708888F800000004FE8888A2
S2144026647000000004708888880000000470888821
S214402674FE0000000470A8A83000000003FC12020C
S2144026840410A8A87800000004FE1008F00000001B
S21440269401FA000002807A0004FE20508800000000
S2144026A401FE000005F808F008F0000004F81008E1
S2144026B4F0000000047088887000000004F82828A1
S2144026C41000000004102828F800000003F8100842
S2144026D40490A8A84800000003087C8804788080FA
S2144026E4F800000005186080601800000538C03007
S2144026F4C038000005885020508800000418A0A068
S2144027047800000003C8A89800093D0000000000B7
S21440271400000000FC06002064070020CC070020D0
S2144027240000000000000000000000000000000060
S2144027340000000000000000000000000000000050
S21440274400000000B022400000000000000000002E
S2144027540000000000000000000000000000000030
S2144027640000000000000000000000000000000020
S2144027740000000000000000000000000000000010
S2144027840000000000000000000000000000000000
S21440279400000000000000000000000000000000F0
S2144027A400000000000000000000000000000000E0
S2144027B400000000000000000100000000000000CF
S2144027C40E33CDAB34126DE6ECDE05000B00000094
S2144027D400000000000000000000000000000000B0
S2144027E400000000000000000000000000000000A0
S2144027F40000000000000000000000000000000090
S214402804000000000000000000000000000000007F
S804400D4D61
